:020000040800F2
:1000000000500020016D00087D1900087F190008CC
:1000100081190008831900088519000800000000F4
:100020000000000000000000000000005153000824
:100030008719000800000000F1530008355400083B
:10004000496D0008496D0008496D0008496D0008B8
:10005000496D0008496D0008496D0008496D0008A8
:10006000496D0008496D0008496D0008496D000898
:10007000496D0008496D000889190008496D00089C
:1000800099190008496D0008496D0008496D00087C
:10009000496D0008496D0008496D0008496D000868
:1000A000496D0008A9190008496D0008496D00084C
:1000B000496D0008496D0008496D0008496D000848
:1000C000496D0008496D0008496D0008496D000838
:1000D000496D0008496D0008496D0008496D000828
:1000E000496D0008496D0008496D000800000000D6
:1000F0000000000000000000000000000000000000
:0C01000000000000000000005FF808F1A3
:1001100010B5054C237833B9044B13B10448AFF341
:1001200000800123237010BD5C100020000000003F
:10013000D87D000808B5034B1BB103490348AFF352
:10014000008008BD0000000060100020D87D00087D
:1001500081F0004102E000BF83F0004330B54FEA78
:1001600041044FEA430594EA050F08BF90EA020FE5
:100170001FBF54EA000C55EA020C7FEA645C7FEA78
:10018000655C00F0E2804FEA5454D4EB5555B8BF9B
:100190006D420CDD2C4480EA020281EA030382EA0C
:1001A000000083EA010180EA020281EA0303362D9E
:1001B00088BF30BD11F0004F4FEA01314FF4801C71
:1001C0004CEA113102D0404261EB410113F0004F83
:1001D0004FEA03334CEA133302D0524263EB43033A
:1001E00094EA050F00F0A780A4F10104D5F1200ED8
:1001F0000DDB02FA0EFC22FA05F2801841F1000133
:1002000003FA0EF2801843FA05F359410EE0A5F106
:1002100020050EF1200E012A03FA0EFC28BF4CF037
:10022000020C43FA05F3C01851EBE37101F00045ED
:1002300007D54FF0000EDCF1000C7EEB00006EEBFA
:100240000101B1F5801F1BD3B1F5001F0CD3490884
:100250005FEA30004FEA3C0C04F101044FEA4452DB
:1002600012F5800F80F09A80BCF1004F08BF5FEA62
:10027000500C50F1000041EB045141EA050130BD42
:100280005FEA4C0C404141EB0101013C28BFB1F554
:10029000801FE9D291F0000F04BF01460020B1FA9F
:1002A00081F308BF2033A3F10B03B3F120020CDA72
:1002B0000C3208DD02F1140CC2F10C0201FA0CF050
:1002C00021FA02F10CE002F11402D8BFC2F1200CB5
:1002D00001FA02F120FA0CFCDCBF41EA0C0190406B
:1002E000E41AA2BF01EB0451294330BD6FEA0404B4
:1002F0001F3C1CDA0C340EDC04F11404C4F120029F
:1003000020FA04F001FA02F340EA030021FA04F3B0
:1003100045EA030130BDC4F10C04C4F1200220FA07
:1003200002F001FA04F340EA0300294630BD21FA45
:1003300004F0294630BD94F0000F83F4801306BF0B
:1003400081F480110134013D4EE77FEA645C18BFFF
:100350007FEA655C29D094EA050F08BF90EA020F96
:1003600005D054EA000C04BF1946104630BD91EA8E
:10037000030F1EBF0021002030BD5FEA545C05D191
:100380004000494128BF41F0004130BD14F58004D0
:100390003CBF01F5801130BD01F0004545F0FE4144
:1003A00041F470014FF0000030BD7FEA645C1ABF79
:1003B000194610467FEA655C1CBF0B46024650EAB0
:1003C000013406BF52EA033591EA030F41F40021DC
:1003D00030BD00BF90F0000F04BF0021704730B562
:1003E0004FF4806404F132044FF000054FF0000137
:1003F00050E700BF90F0000F04BF0021704730B5F8
:100400004FF4806404F1320410F0004548BF4042CC
:100410004FF000013EE700BF42004FEAE2014FEA21
:1004200031014FEA02701FBF12F07F4393F07F4FFC
:1004300081F06051704732F07F4208BF704793F0FF
:100440007F4F04BF41F40021704730B54FF4607412
:1004500001F0004521F000411CE700BF50EA010215
:1004600008BF704730B54FF000050AE050EA0102BE
:1004700008BF704730B511F0004502D5404261EB2E
:1004800041014FF4806404F132045FEA915C3FF46F
:10049000D8AE4FF003025FEADC0C18BF03325FEA0C
:1004A000DC0C18BF033202EBDC02C2F1200300FABD
:1004B00003FC20FA02F001FA03FE40EA0E0021FAE2
:1004C00002F11444BDE600BF70B54FF0FF0C4CF4D0
:1004D000E06C1CEA11541DBF1CEA135594EA0C0F82
:1004E00095EA0C0F00F0DEF82C4481EA030621EABD
:1004F0004C5123EA4C5350EA013518BF52EA0335F8
:1005000041F4801143F4801338D0A0FB02CE4FF0A9
:100510000005E1FB02E506F00042E0FB03E54FF0D9
:100520000006E1FB03569CF0000F18BF4EF0010ED1
:10053000A4F1FF04B6F5007F64F5407404D25FEACD
:100540004E0E6D4146EB060642EAC62141EA555180
:100550004FEAC52040EA5E504FEACE2EB4F1FD0CC2
:1005600088BFBCF5E06F1ED8BEF1004F08BF5FEA40
:10057000500E50F1000041EB045170BD06F00046F2
:1005800046EA010140EA020081EA0301B4EB5C049F
:10059000C2BFD4EB0C0541EA045170BD41F4801197
:1005A0004FF0000E013C00F3AB8014F1360FDEBFBC
:1005B000002001F0004170BDC4F10004203C35DA98
:1005C0000C341BDC04F11404C4F1200500FA05F31B
:1005D00020FA04F001FA05F240EA020001F00042BC
:1005E00021F0004110EBD37021FA04F642EB060132
:1005F0005EEA430E08BF20EAD37070BDC4F10C045C
:10060000C4F1200500FA04F320FA05F001FA04F21F
:1006100040EA020001F0004110EBD37041F100010B
:100620005EEA430E08BF20EAD37070BDC4F1200516
:1006300000FA05F24EEA020E20FA04F301FA05F27E
:1006400043EA020321FA04F001F0004121FA04F226
:1006500020EA020000EBD3705EEA430E08BF20EAF6
:10066000D37070BD94F0000F0FD101F00046400030
:1006700041EB010111F4801F08BF013CF7D041EAB2
:10068000060195F0000F18BF704703F000465200B6
:1006900043EB030313F4801F08BF013DF7D043EA87
:1006A0000603704794EA0C0F0CEA135518BF95EA3D
:1006B0000C0F0CD050EA410618BF52EA4306D1D1C4
:1006C00081EA030101F000414FF0000070BD50EAE3
:1006D000410606BF1046194652EA430619D094EA6D
:1006E0000C0F02D150EA013613D195EA0C0F05D157
:1006F00052EA03361CBF104619460AD181EA0301AB
:1007000001F0004141F0FE4141F470014FF0000062
:1007100070BD41F0FE4141F4780170BD70B54FF0FD
:10072000FF0C4CF4E06C1CEA11541DBF1CEA13557D
:1007300094EA0C0F95EA0C0F00F0A7F8A4EB05045F
:1007400081EA030E52EA03354FEA013100F0888056
:100750004FEA03334FF0805545EA131343EA12631F
:100760004FEA022245EA111545EA10654FEA0026D4
:100770000EF000419D4208BF964244F1FD0404F58D
:10078000407402D25B084FEA3202B61A65EB0305E9
:100790005B084FEA32024FF480104FF4002CB6EBA6
:1007A000020E75EB030E22BFB61A754640EA0C0026
:1007B0005B084FEA3202B6EB020E75EB030E22BF66
:1007C000B61A754640EA5C005B084FEA3202B6EBA7
:1007D000020E75EB030E22BFB61A754640EA9C0066
:1007E0005B084FEA3202B6EB020E75EB030E22BF36
:1007F000B61A754640EADC0055EA060E18D04FEAF4
:10080000051545EA16754FEA06164FEAC30343EA93
:1008100052734FEAC2025FEA1C1CC0D111F4801F60
:100820000BD141EA00014FF000004FF0004CB6E759
:1008300011F4801F04BF01430020B4F1FD0C88BFF8
:10084000BCF5E06F3FF6AFAEB5EB030C04BFB6EB03
:10085000020C5FEA500C50F1000041EB045170BDF6
:100860000EF0004E4EEA113114EB5C04C2BFD4EB23
:100870000C0541EA045170BD41F480114FF0000EA7
:10088000013C90E645EA060E8DE60CEA135594EA23
:100890000C0F08BF95EA0C0F3FF43BAF94EA0C0F26
:1008A0000AD150EA01347FF434AF95EA0C0F7FF49B
:1008B00025AF104619462CE795EA0C0F06D152EAEF
:1008C00003353FF4FDAE1046194622E750EA4106D3
:1008D00018BF52EA43067FF4C5AE50EA41047FF4E4
:1008E0000DAF52EA43057FF4EBAE12E74FF0FF3C49
:1008F00006E000BF4FF0010C02E000BF4FF0010C1A
:100900004DF804CD4FEA410C7FEA6C5C4FEA430C92
:1009100018BF7FEA6C5C1BD001B050EA410C0CBFE1
:1009200052EA430C91EA030F02BF90EA020F002043
:10093000704710F1000F91EA030F58BF994208BFAA
:1009400090422CBFD8176FEAE37040F00100704767
:100950004FEA410C7FEA6C5C02D150EA013C07D1BE
:100960004FEA430C7FEA6C5CD6D152EA033CD3D009
:100970005DF8040B704700BF8446104662468C4603
:100980001946634600E000BF01B5FFF7B7FF002836
:1009900048BF10F1000F01BD4DF808EDFFF7F4FF5F
:1009A0000CBF012000205DF808FB00BF4DF808EDEA
:1009B000FFF7EAFF34BF012000205DF808FB00BF0D
:1009C0004DF808EDFFF7E0FF94BF012000205DF82F
:1009D00008FB00BF4DF808EDFFF7CEFF94BF0120E4
:1009E00000205DF808FB00BF4DF808EDFFF7C4FFDD
:1009F00034BF012000205DF808FB00BF4FEA410230
:100A0000B2F1E04324BFB3F5001CDCF1FE5C0DD96C
:100A100001F0004C4FEAC0024CEA5070B2F1004FB6
:100A200040EB830008BF20F00100704711F0804FB9
:100A300021D113F13872BCBF01F00040704741F47E
:100A400080114FEA5252C2F11802C2F1200C10FA82
:100A50000CF320FA02F018BF40F001004FEAC12366
:100A60004FEAD32303FA0CFC40EA0C0023FA02F30A
:100A70004FEA4303CCE77FEA625307D150EA0133E0
:100A80001EBF4FF0FE4040F44000704701F00040B0
:100A900040F0FE4040F40000704700BF80F000408E
:100AA00002E000BF81F0004142001FBF5FEA410346
:100AB00092EA030F7FEA226C7FEA236C6AD04FEA46
:100AC0001262D2EB1363C1BFD2184140484041408B
:100AD000B8BF5B42192B88BF704710F0004F40F43D
:100AE000000020F07F4018BF404211F0004F41F459
:100AF000000121F07F4118BF494292EA030F3FD025
:100B0000A2F1010241FA03FC10EB0C00C3F1200337
:100B100001FA03F100F0004302D5494260EB4000C6
:100B2000B0F5000F13D3B0F1807F06D340084FEA31
:100B3000310102F10102FE2A51D2B1F1004F40EB26
:100B4000C25008BF20F0010040EA0300704749008E
:100B500040EB0000013A28BFB0F5000FEDD2B0FA2B
:100B600080FCACF1080CB2EB0C0200FA0CF0AABF4E
:100B700000EBC25052421843BCBFD04018437047EC
:100B800092F0000F81F4000106BF80F400000132F2
:100B9000013BB5E74FEA41037FEA226C18BF7FEAC9
:100BA000236C21D092EA030F04D092F0000F08BF0B
:100BB0000846704790EA010F1CBF0020704712F0F2
:100BC0007F4F04D1400028BF40F00040704712F131
:100BD00000723CBF00F50000704700F0004343F096
:100BE000FE4040F4000070477FEA226216BF0846CC
:100BF0007FEA23630146420206BF5FEA412390EA8F
:100C0000010F40F4800070474FF0000304E000BF84
:100C100010F0004348BF40425FEA000C08BF704735
:100C200043F0964301464FF000001CE050EA0102F9
:100C300008BF70474FF000030AE000BF50EA01020E
:100C400008BF704711F0004302D5404261EB4101FB
:100C50005FEA010C02BF84460146002043F0B64320
:100C600008BFA3F18053A3F50003BCFA8CF2083A45
:100C7000A3EBC25310DB01FA02FC634400FA02FC4E
:100C8000C2F12002BCF1004F20FA02F243EB020055
:100C900008BF20F00100704702F1200201FA02FCB7
:100CA000C2F1200250EA4C0021FA02F243EB0200AA
:100CB00008BF20EADC7070474FF0FF0C1CEAD052EE
:100CC0001EBF1CEAD15392EA0C0F93EA0C0F6FD0AF
:100CD0001A4480EA010C400218BF5FEA41211ED08D
:100CE0004FF0006343EA501043EA5111A0FB013179
:100CF0000CF00040B1F5000F3EBF490041EAD3714E
:100D00005B0040EA010062F17F02FD2A1DD8B3F1C9
:100D1000004F40EBC25008BF20F00100704790F038
:100D2000000F0CF0004C08BF49024CEA502040EA8A
:100D300051207F3AC2BFD2F1FF0340EAC250704750
:100D400040F400004FF00003013A5DDC12F1190F8E
:100D5000DCBF00F000407047C2F10002410021FA00
:100D600002F1C2F1200200FA02FC5FEA310040F118
:100D7000000053EA4C0308BF20EADC70704792F091
:100D8000000F00F0004C02BF400010F4000F013AC9
:100D9000F9D040EA0C0093F0000F01F0004C02BFC4
:100DA000490011F4000F013BF9D041EA0C018FE733
:100DB0000CEAD15392EA0C0F18BF93EA0C0F0AD039
:100DC00030F0004C18BF31F0004CD8D180EA01005F
:100DD00000F00040704790F0000F17BF90F0004FF8
:100DE000084691F0000F91F0004F14D092EA0C0FDA
:100DF00001D142020FD193EA0C0F03D14B0218BF6D
:100E0000084608D180EA010000F0004040F0FE40B2
:100E100040F40000704740F0FE4040F4400070474E
:100E20004FF0FF0C1CEAD0521EBF1CEAD15392EACD
:100E30000C0F93EA0C0F69D0A2EB030280EA010CBD
:100E400049024FEA402037D04FF0805343EA111156
:100E500043EA10130CF000408B4238BF5B0042F1B4
:100E60007D024FF4000C8B4224BF5B1A40EA0C0059
:100E7000B3EB510F24BFA3EB510340EA5C00B3EB8B
:100E8000910F24BFA3EB910340EA9C00B3EBD10F79
:100E900024BFA3EBD10340EADC001B0118BF5FEACB
:100EA0001C1CE0D1FD2A3FF650AF8B4240EBC250F4
:100EB00008BF20F0010070470CF0004C4CEA5020B5
:100EC0007F32C2BFD2F1FF0340EAC250704740F404
:100ED00000004FF00003013A37E792F0000F00F0F6
:100EE000004C02BF400010F4000F013AF9D040EA74
:100EF0000C0093F0000F01F0004C02BF490011F408
:100F0000000F013BF9D041EA0C0195E70CEAD153FF
:100F100092EA0C0F08D142027FF47DAF93EA0C0FE6
:100F20007FF470AF084676E793EA0C0F04D14B02CA
:100F30003FF44CAF08466EE730F0004C18BF31F07C
:100F4000004CCAD130F000427FF45CAF31F0004376
:100F50007FF43CAF5FE700BF4FF0FF3C06E000BF0F
:100F60004FF0010C02E000BF4FF0010C4DF804CD32
:100F70004FEA40024FEA41037FEA226C18BF7FEA42
:100F8000236C11D001B052EA530C18BF90EA010F44
:100F900058BFB2EB030088BFC81738BF6FEAE170D3
:100FA00018BF40F0010070477FEA226C02D15FEA6F
:100FB000402C05D17FEA236CE4D15FEA412CE1D0DB
:100FC0005DF8040B704700BF844608466146FFE7A2
:100FD0000FB5FFF7C9FF002848BF10F1000F0FBD84
:100FE0004DF808EDFFF7F4FF0CBF012000205DF87D
:100FF00008FB00BF4DF808EDFFF7EAFF34BF012002
:1010000000205DF808FB00BF4DF808EDFFF7E0FF9A
:1010100094BF012000205DF808FB00BF4DF808EDEB
:10102000FFF7D2FF94BF012000205DF808FB00BF4E
:101030004DF808EDFFF7C8FF34BF012000205DF830
:1010400008FB00BF4FEA4002B2F1FE4F0FD34FF052
:101050009E03B3EB12620DD94FEA002343F0004325
:1010600010F0004F23FA02F018BF404270474FF0D3
:101070000000704712F1610F01D1420205D110F05A
:10108000004008BF6FF0004070474FF0000070470D
:10109000844641EA000313F0030349D1403A23D3C5
:1010A0000B6803604B6843608B688360CB68C360E8
:1010B0000B6903614B6943618B698361CB69C361D0
:1010C0000B6A03624B6A43628B6A8362CB6AC362B8
:1010D0000B6B03634B6B43638B6B8363CB6BC363A0
:1010E00040304031403ADBD230320BD30B680360E2
:1010F0004B6843608B688360CB68C36010301031ED
:10110000103AF3D20C3205D351F8043B40F8043BBB
:10111000043AF9D2043208D0D2071CBF11F8013BBF
:1011200000F8013B01D30B8803806046704700BF85
:10113000082A13D38B07B1D010F00303AED0C3F14C
:101140000403D21ADB071CBF11F8013B00F8013B76
:10115000A4D331F8023B20F8023B9FE7043AD9D3ED
:10116000013A11F8013B00F8013BF9D20B7803700A
:101170004B7843708B788370604670474FEA410C20
:101180007FEA6C5C02D150EA013C0AD14FEA430C81
:101190007FEA6C5C02D152EA033C02D14FF00000BE
:1011A00070474FF00100704700B585B000230193F0
:1011B000029303931148124A02608360037303751C
:1011C0004FF46022C26143600123036101F018FC07
:1011D00068B909230193012302930023039301A912
:1011E000064801F0FBFA28B905B05DF804FB00F0F1
:1011F000F5FAEEE700F0F2FAF6E700BF781000200B
:101200000024014000B585B00023019302930393AD
:101210001148124A02608360037303754FF4602221
:10122000C26143600123036101F0EAFB68B908234E
:101230000193012302930023039301A9064801F0BF
:10124000CDFA28B905B05DF804FB00F0C7FAEEE767
:1012500000F0C4FAF6E700BFA81000200028014003
:1012600000B589B0002304930593069307930368A0
:10127000204A934205D0204A93421ED009B05DF81F
:1012800004FB1E4B9A6942F400729A619A6902F457
:1012900000720092009A9A6942F008029A619B6972
:1012A00003F008030193019B022304930323059396
:1012B00004A9134801F0D8FDE0E7104B9A6942F405
:1012C00080629A619A6902F480620292029A9A6933
:1012D00042F008029A619B6903F008030393039BA1
:1012E000012304930323059304A9054801F0BCFDE1
:1012F000C4E700BF00240140002801400010024064
:10130000000C014038B50D464FF07E51FFF7CCFB85
:101310000749FFF7D1FC044606492846FFF7CCFCF5
:1013200001462046FFF7C0FBFFF78CFE38BD00BF2B
:10133000000048430000A0412DE970430844FFF736
:1013400067FC05462A4B18602A4E3068FFF764F8A0
:1013500023A3D3E90023FFF7B7F8FFF74FFB0446B9
:1013600030602846FFF758F81FA3D3E90023FFF7A2
:10137000ABF8804689462046FFF74EF842464B467A
:10138000FEF7ECFEFFF73AFB044630601A4D296881
:10139000FFF78AFB28601949FFF74AFE08B1174A90
:1013A0002A601749144B1868FFF724FE10B1124B3E
:1013B000134A1A6013492046FFF77EFC044612497F
:1013C0000D4B1868FFF778FC01462046FFF76CFBD1
:1013D0000E4B1860FFF736FEBDE87083AFF3008058
:1013E000666666666666E63F333333333333D33F30
:1013F000E0100020D8100020DC10002000401C4627
:1014000000401CC6CDCC4C3E6F12833AE410002045
:1014100070B582B005460E4619461046FFF772FFBA
:10142000044631462846FFF787FF204401900028F4
:101430000FDD0121002000F03BFB0121084600F0F8
:1014400037FB01A800F042FB019800F04FFB02B00F
:1014500070BD0021084600F02BFB0021012000F0A8
:1014600027FBEEE700B583B00E4B5A6942F001024C
:101470005A615B6903F001030193019B002205217E
:101480000E2001F0D3FB0E2001F008FC0022052104
:10149000102001F0CBFB102001F000FC03B05DF840
:1014A00004FB00BF0010024008B500F029FB00F06B
:1014B0005BFB3C21034803F04DFB3C21024803F059
:1014C00049FB08BDB811002000120020034B1B6827
:1014D000586A00225A6200B2704700BFB81100205B
:1014E000034B1B68586A00225A6200B2704700BF63
:1014F0000012002008B5084C4FF0FF3300222146AF
:101500000648006803F030FEE368A268616820685E
:10151000FFF77EFFEFE700BFF8100020F01000207B
:1015200008B5114803F014FD104B1860104A102143
:10153000012003F06BFD0F4B18600F4A00210F488C
:1015400003F068FC0E4B18600E4A00210E4803F0B1
:1015500061FC0E4B18600E4A00210E4803F05AFC45
:101560000D4B186008BD00BF647E0008E810002025
:10157000987E0008F0100020B07E000805160008D4
:10158000F4100020D47E0008751600081811002001
:10159000747E0008F5140008EC10002010B500213E
:1015A000202001F0C5F8124C124A94E8030001F023
:1015B000A3F80C21002001F0BBF80F4A94E80300C7
:1015C00001F09AF80C21402001F0B2F80B4A94E89F
:1015D000030001F091F83621052001F0A9F8084A2E
:1015E00094E8030001F088F800F0EAFF10BD00BFA6
:1015F00098000020F07D0008FC7D0008047E0008B3
:101600000C7E000808B500F0D9F9FFF74DFF01F096
:1016100095F8FFF7C3FF4FF47A7003F077FC0448A6
:1016200000F0A8FC4FF47A7003F070FC03F068FC43
:101630001C11002000B585B00DF1100C0CE90F0055
:1016400006A90B4800F0E0FDDDE91801FFF7D6F927
:101650000290DDE91001FFF7D1F90390FFF736FFA3
:101660000090FFF73DFF019005B05DF804FB00BF5F
:101670001C11002000B5ADB00A4C58220DEB020140
:101680006846FFF705FD94E80F00FFF7D3FF00233E
:101690001A4621460448006803F016FD0A2003F0AC
:1016A00035FCE9E708110020F010002030B589B0C2
:1016B00000240494059406940794184B9A6942F008
:1016C00020029A619A6902F020020192019A9A69B5
:1016D00042F004029A619A6902F004020292029AAC
:1016E0009A6942F008029A619B6903F00803039328
:1016F000039B0B4D22464FF47041284601F0C6FC77
:101700004FF4704304930123059306940323079336
:1017100004A9284601F0A8FB09B030BD0010024022
:10172000000C014008B50B480B4B03600B4B4360AA
:1017300000238360C3604FF4804202614361836190
:10174000C361036201F0F4FE00B908BD00F046F881
:10175000FBE700BF1C11002000580040A0860100DC
:1017600010B586B000230293039304930593026897
:10177000114B9A4201D006B010BD104CA36943F042
:101780000803A361A36903F008030093009B4FF4CF
:1017900040630293122303930323059302A908488D
:1017A00001F062FBE36943F48003E361E36903F45E
:1017B00080030193019BDEE70058004000100240C7
:1017C000000C014008B50268034B9A4200D008BDE6
:1017D00000F0F2FFFBE700BF002C014072B6FEE70D
:1017E00000B595B0282200210DEB020005F094FD14
:1017F000002305930693079308930993019302939B
:101800000393049301220A924FF480330B930E92B8
:101810000222119212934FF4E01313930AA802F0DC
:10182000D1F9C8B90F23059302210691002307932C
:101830004FF480620892099305A802F003FC68B98E
:10184000022301934FF40043039301A802F0F4FC38
:1018500030B915B05DF804FBFFF7C0FFFFF7BEFF1E
:10186000FFF7BCFF08B500F095FFFFF7B9FFFFF7E2
:101870001DFF00F045F900F05DFAFFF753FF00F09F
:1018800073F9FFF7EFFD00F0BDFA00F0A1FAFFF7E2
:101890008BFCFFF7B7FC054801F036F903F072FA4C
:1018A000FFF73EFE03F090FAFEE700BF781000203D
:1018B00000B583B0114B9A6942F001029A619A69AE
:1018C00002F001020092009ADA6942F08052DA6175
:1018D000DB6903F080530193019B00220F216FF01D
:1018E000010001F0A3F9064A536823F0E06343F0D6
:1018F0000073536003B05DF804FB00BF00100240AA
:101900000000014000B589B001460022192001F015
:101910008DF9192001F0C2F9144B9A6942F4006262
:101920009A619B6903F400630193019B02A903A8D8
:1019300002F064FC02F052FC0D4BA3FB00239B0C55
:10194000013B0C480C4A026040F2E732C26043603F
:1019500000230361836002F031FF18B1012009B058
:101960005DF804FB034802F0F9FDF8E700100240BF
:1019700083DE1B4370110020002C0140FEE7FEE7D0
:10198000FEE7FEE7FEE7704708B5024801F0CAF936
:1019900008BD00BF9012002008B5024801F0C2F94E
:1019A00008BD00BFD412002008B5024802F00EFEA8
:1019B00008BD00BF701100207047000010B5FFF790
:1019C00075FE00F0B7F9054C0821204603F054F8E5
:1019D0000C21204603F050F810BD00BF4812002033
:1019E00010B5012811D002281DD000B110BD154C32
:1019F00000224FF48041204601F048FB01224FF4C1
:101A00000041204601F042FBF0E70E4C01224FF46A
:101A10008041204601F03AFB00224FF4004120466D
:101A200001F034FBE2E7074C01224FF480412046ED
:101A300001F02CFB01224FF40041204601F026FB6F
:101A4000D4E700BF000C014010B5012811D00228D6
:101A50001DD000B110BD154C00224FF4005120469E
:101A600001F014FB01224FF48051204601F00EFBDF
:101A7000F0E70E4C01224FF40051204601F006FB26
:101A800000224FF48051204601F000FBE2E7074CB2
:101A900001224FF40051204601F0F8FA01224FF4E0
:101AA0008051204601F0F2FAD4E700BF000C01405B
:101AB00008B510B1012804D008BD0846FFF790FF13
:101AC000FAE70846FFF7C0FFF6E700000368B3F542
:101AD000616F02DD4FF461630360036813F5616FAA
:101AE00001DA014B03607047F0F1FFFF034B1B6805
:101AF0000028B8BF4042D8631864704748120020DD
:101B000000B58DB02422002103A805F005FC0023B8
:101B10000193029313484FF0804202604360836058
:101B20004FF6FF72C26003618361032303930122B6
:101B300005920623079309920B9303A902F096FEE0
:101B400050B900230193029301A9064803F068F8F5
:101B500028B90DB05DF804FBFFF740FEF1E7FFF791
:101B60003DFEF6E7B811002000B58DB0242200211B
:101B700003A805F0D1FB0023019302931148124AF8
:101B80000260436083604FF6FF72C260036183614D
:101B90000323039301230593099303A902F066FE2F
:101BA00050B900230193029301A9064803F038F8C5
:101BB00028B90DB05DF804FBFFF710FEF1E7FFF761
:101BC0000DFEF6E7001200200004004000B58BB0C7
:101BD000002306930793089309930368B3F1804F9A
:101BE00005D0304A934239D00BB05DF804FB03F5C1
:101BF0000433DA6942F00102DA61DA6902F00102C3
:101C00000192019A9A6942F004029A619A6902F07B
:101C100004020292029A9A6942F008029A619B6950
:101C200003F008030393039B4FF40043069306A9B4
:101C30001D4801F019F90823069300230793089320
:101C400006A91A4801F010F9194A536823F44073A1
:101C500043F0E06343F480735360C5E7154BDA69E2
:101C600042F00202DA61DA6902F002020492049A96
:101C70009A6942F008029A619B6903F00803059390
:101C8000059B3023069306A9084801F0EDF8084AA1
:101C9000536823F4406343F0E06343F4006353600C
:101CA000A2E700BF0004004000080140000C014012
:101CB00000000140001002400268094B9A4200D027
:101CC000704782B003F50233DA6942F00402DA6148
:101CD000DB6903F004030193019B02B0704700BF6E
:101CE0000008004000B587B00023029303930493DB
:101CF000059302680D4B9A4202D007B05DF804FBD1
:101D000003F502339A6942F008029A619B6903F075
:101D100008030193019B4FF4407302930223039342
:101D2000059302A9024801F09FF8E6E70008004089
:101D3000000C014000B58BB0002308930993019378
:101D40000293039304930593069307931E481F4A37
:101D50000260436083604FF46162C260036183612B
:101D600002F058FD18BB00230893099308A91648F0
:101D700002F056FFF0B9602301934FF4E163029340
:101D8000002303930593082201A90F4802F0FCFDEC
:101D900098B9002302930C2201A90B4802F0F4FD2C
:101DA00070B90948FFF79EFF0BB05DF804FBFFF721
:101DB00015FDD8E7FFF712FDDDE7FFF70FFDE8E7B8
:101DC000FFF70CFDEDE700BF4812002000080040BF
:101DD00008B50A480A4B03604FF4E133436000231F
:101DE0008360C36003610C2242618361C36102F0BE
:101DF00099FF00B908BDFFF7F1FCFBE718130020BD
:101E00000038014008B50A480A4B03604FF4E1333B
:101E1000436000238360C36003610C2242618361DD
:101E2000C36102F07FFF00B908BDFFF7D7FCFBE7F5
:101E30005C1300200044004070B588B004460023C5
:101E400004930593069307930368424A934204D090
:101E5000414A934241D008B070BD404B9A6942F468
:101E600080429A619A6902F480420092009A9A69CB
:101E700042F004029A619B6903F004030193019B01
:101E80004FF4007304930223059303230793344E06
:101E900004A9304600F0E8FF4FF480630493002566
:101EA0000595069504A9304600F0DEFF2D482E4B1F
:101EB00003601023436085608023C3600561456132
:101EC00020238361C56100F0F7FE18B9254B6363D9
:101ED0005C62C0E7FFF782FCF8E7204BDA6942F466
:101EE0000032DA61DA6902F400320292029A9A69E7
:101EF00042F004029A619B6903F004030393039B7D
:101F0000042304930223059303230793144E04A987
:101F1000304600F0A9FF0823049300250595069597
:101F200004A9304600F0A0FF1048114B0360456043
:101F300085608023C360056145618561C56100F0EE
:101F4000BBFE18B9094BA3635C6284E7FFF746FC4C
:101F5000F8E700BF00380140004400400010024094
:101F6000000801409012002044000240D4120020DA
:101F70006C0002402DE9F04186B0054664230293CF
:101F8000012301930DF1170200927522D02101F077
:101F90005FFC9DF81730682B03D0012006B0BDE828
:101FA000F08100248DF816404FF06408CDF80880C9
:101FB000012601960DF11607009733466B22D021BA
:101FC000284601F093FB07238DF81630CDF80880E2
:101FD0000196009733461922D021284601F086FB4E
:101FE0008DF81640CDF808800196009733461C22E4
:101FF000D021284601F07AFB8DF81640CDF80880F4
:102000000196009733461B22D021284601F06EFB33
:102010002046C3E72DE9F04792B08246CDE906237A
:10202000D0E90834CDE904341A462346DDE91A0123
:10203000FEF792F8DDE91C23FEF746FADAE90623FB
:10204000FEF78CF806460F46CDE90867CAE9066731
:10205000DAE91045DDE91C2320462946FEF734FA6B
:1020600002460B46CDE90223DAE90C8942464B468B
:10207000FEF772F8DAE90E6732463B46FEF76CF877
:10208000DAE90023FEF76AF8DDE91C23FEF71CFA03
:10209000DAE90A23FEF762F80A460146CDE90012A2
:1020A000CAE90A12DDE9022340464946FEF754F820
:1020B00080468946CDE90A89CAE90C89DDE902230F
:1020C00030463946FEF748F88046894602460B46B8
:1020D000CAE90E23DDE91C23DAE90201FEF7F4F96F
:1020E00002460B4620462946FEF738F805460E46BE
:1020F000CDE90C56CAE91056DAE90423DDE90045BA
:1021000020462946FEF72AF806460F4602460B46A9
:1021100020462946FEF702FB04460D46CDE90E4552
:1021200032463B46CDE9028940464946FEF7F6FA7B
:1021300080468946CDE91089DDE9086732463B468D
:10214000DDE90601FEF708F802460B46CDE9062355
:1021500020462946FEF7B8F902460B463046394676
:10216000FDF7FCFF06460F46CAE90667DDE90623D0
:1021700040464946FEF7A8F902460B46DDE9040150
:10218000FDF7ECFFCAE9080122462B46DDE9000114
:10219000FEF79AF902460B46DDE90001FDF7DCFF88
:1021A000CAE90A0122462B46DDE90A4520462946AE
:1021B000FEF78AF902460B4620462946FDF7CCFF7A
:1021C000CAE90C0142464B46DDE90001FEF77CF905
:1021D00002460B46DDE90201FDF7BEFFCAE90E012A
:1021E00042464B4620462946FEF76EF902460B460C
:1021F000DDE90C01FDF7B0FFCAE9100130463946B0
:1022000012B0BDE8F08700002DE9F04F89B00C4610
:10221000642302930E23019304AB009301233B221A
:10222000D02101F015FB9DF810309DF8110040EA17
:10223000032000B220809DF812309DF8139049EAE7
:1022400003290FFA89F9A4F802909DF814309DF83B
:10225000158048EA03280FFA88F8A4F804809DF84E
:102260001660360236B29DF817301E439DF81830BE
:102270009DF819B04BEA032B0FFA8BFBA4F820B0A2
:102280009DF81A309DF81BA04AEA032A0FFA8AFA31
:10229000A4F822A09DF81C309DF81D7047EA032782
:1022A0003FB2A784FEF7A6F80022754BFEF70CF9A3
:1022B000C4E902014846FEF79DF80022704BFEF784
:1022C00003F9C4E904014046FEF794F866A3D3E994
:1022D0000023FEF723FAC4E906013046FEF798FC16
:1022E0006849FEF79DFD6849FEF7DEFB206458460D
:1022F000FEF780F85EA3D3E90023FEF70FFAC4E9E6
:102300000A015046FEF776F859A3D3E90023FEF7F9
:1023100005FAC4E90C013846FEF76CF854A3D3E97A
:102320000023FEF7FBF9C4E90E0100F051FA574D06
:102330002B68C01AFEF74EF80022554BFEF7EEF957
:102340008046894600F044FA2860B4F90000B4F9E8
:10235000043003FB03F300FB0030FEF74BF805F0FD
:1023600083FB06460F4600220023FEF715FB0028DC
:1023700066D1B4F90200FEF73DF832463B46FEF75F
:10238000CDF905F0DDF93CA3D3E90023FEF79CF875
:1023900082468B46B4F900506D42B4F90400FEF752
:1023A00029F806460F462846FEF724F832463B46F3
:1023B00005F058FB30A3D3E90023FEF785F8064665
:1023C0000F460022334BFEF7F1FA30B10022324BB8
:1023D000D4E91401FEF708FB70B900222E4B3046F9
:1023E0003946FEF701FB00282FD00022294BD4E903
:1023F0001401FEF7DBFA40B3284BC3E90667C4E9D2
:102400001467666D0022244B206D26F00041FEF714
:10241000EBFA28B1E16AA26A01F10043C4E90A2398
:10242000CDE90289D4E90C23CDE9002352465B466D
:102430001B48FFF7EFFDC4E9120109B0BDE8F08FBA
:102440004FF0000A4FF0000BA4E7CDE90289D4E970
:102450000C23CDE9002332463B461048FFF7DAFD56
:10246000C4E91401CDE700BF000000000029CC4002
:102470000000000000606040F8C1631ADCA54C4019
:102480000000103F0000AA43B81E1242A013002013
:1024900000408F40008056C0008056405000002011
:1024A0000800002000B587B08DF817004FF47A734C
:1024B0000293012301930DF117020092002278216B
:1024C000024801F013F907B05DF804FB1C1100206D
:1024D00000B585B04FF47A73029301910090012307
:1024E00040227821024801F001F905B05DF804FBB3
:1024F0001C11002010B504468D20FFF7D3FF2046A5
:10250000FFF7D0FF10BD10B504468120FFF7CAFFCA
:102510002046FFF7C7FF10BD08B5A420FFF7C2FF94
:1025200008BD08B5A620FFF7BDFF08BD08B5AF2060
:10253000FFF7B8FF08BD08B5FFF7B4FF08BD08B541
:10254000FFF7B0FF08BD08B5FFF7ACFF08BD08B541
:10255000FFF7A8FF08BD08B5FFF7A4FF08BD10B539
:102560000446A820FFF79EFF2046FFF79BFF10BD03
:1025700008B5FFF797FF08BD10B50446D320FFF755
:1025800091FF2046FFF78EFF10BD10B5040144F007
:10259000020464B244EA411404F0F204DA20FFF7C2
:1025A00081FF2046FFF77EFF10BD10B540EA011005
:1025B000C4B2D520FFF776FF2046FFF773FF10BDAA
:1025C00010B5002411E0A4F15000C0B2FFF7BBFF2A
:1025D0000020FFF7B0FF1020FFF7B1FF8021044873
:1025E00000EBC410FFF774FF0134072CEBDD10BDC6
:1025F000B013002008B5002303E0054A0021D154A0
:102600000133B3F5806FF8DBFFF7DAFF08BD00BFD9
:10261000B0130020CB0800EBC31001F00701012329
:102620008B40034A115C21EA03011154704700BF3B
:10263000B0130020CB0800EBC31001F00701012309
:102640008B40024A115C194311547047B0130020AB
:102650002DE9F04383B002AB03E90300A2F12003AC
:10266000DBB25E2B3DD89046224B1B789DF8006074
:102670003344802B39DC1F4B5B789DF801904B4431
:10268000402B34DC00251BE01A4B1878597829447C
:102690002044C9B2C0B2FFF7BDFF0134A6420EDD2F
:1026A00007FA04F313F4004FEED0124B1878597860
:1026B00029442044C9B2C0B2FFF7BCFFEDE70135A1
:1026C000A94508DDA8F1200303FB0953019A32F85C
:1026D00013700024E2E7074B1A7816441E70404638
:1026E00000E0002003B0BDE8F0830020FAE70020FE
:1026F000F8E700BFAC13002010B582B06B4683E84A
:1027000003001446094A93E8030082E8030000E04E
:10271000013422783AB102AB13E90300FFF798FFC6
:1027200022789042F4D0104602B010BDA4130020CD
:10273000014B187059707047AC13002008B53F204A
:10274000FFF70DFF0020FFF717FF4020FFF7FFFE08
:10275000A120FFF700FFC820FFF70AFF002101209A
:10276000FFF713FF7F20FFF7CEFEFFF7D5FEFFF741
:10277000D8FE08210020FFF718FF1420FFF7BAFE4B
:10278000FFF7D4FEFFF736FF00210846FFF7D0FF22
:1027900008BD000008B5074A136843F01003136032
:1027A000032000F031FA0F20FFF7ACF8FFF780F8B4
:1027B000002008BD00200240034A1168034B1B782B
:1027C0000B441360704700BFB01700200C080020B6
:1027D000014B1868704700BFB017002030B482B0BA
:1027E0000022019290F82420012A00F091800346F3
:1027F000012280F824204A68062A2DD80468606BDC
:1028000002EB8202053A4FF01F0C0CFA02FC20EAA0
:102810000C000D6805FA02F2024362630A68092A95
:102820003AD91C68E06802EB42021E3A4FF0070CEE
:102830000CFA02FC20EA0C008D6805FA02F2024351
:10284000E2600A68103A012A36D90020002283F893
:10285000242002B030BC70470C2A0ED80568286BC3
:1028600002EB8202233A1F24944020EA04000C6801
:1028700004FA02F202432A63D0E70568E86A02EB31
:102880008202413A1F24944020EA04000C6804FAB2
:1028900002F20243EA62C1E71C68206902EB4202CD
:1028A0004FF0070C0CFA02FC20EA0C008D6805FAC8
:1028B00002F202432261C4E71A681648824205D038
:1028C0009A6A42F020029A620120BFE7906810F4F1
:1028D000000F1BD1906840F4000090600A68102A35
:1028E00001D00020B2E70C4A12680C49A1FB021289
:1028F000920C02EB82025200019202E0019A013A2C
:102900000192019A002AF9D100209FE700209DE75B
:1029100002209EE7002401400000002083DE1B43CC
:1029200030B583B00023019303689A6812F0010F59
:1029300033D104469A6842F001029A60184B1B6832
:10294000184AA2FB03239B0C019302E0019B013B6D
:102950000193019B002BF9D1FFF73AFF054623684D
:102960009B6813F0010F16D1FFF732FF431B022BB8
:10297000F5D923689B6813F0010FF0D1A36A43F0E7
:102980001003A362E36A43F00103E362002384F8C7
:102990002430012002E0002000E0002003B030BD20
:1029A0000000002083DE1B4338B503689A6812F0EC
:1029B000010F01D1002038BD04469A6822F00102BF
:1029C0009A60FFF705FF054623689B6813F0010F27
:1029D00013D0FFF7FDFE431B022BF5D923689B683C
:1029E00013F0010FF0D0A36A43F01003A362E36A6F
:1029F00043F00103E3620120DDE70020DBE7000094
:102A000000287BD070B50446836A002B4DD0204649
:102A1000FFF7CAFFA36A13F0100369D1002867D13A
:102A2000A26A22F4885222F0020242F00202A2625A
:102A30006268E1690A43217B42EA4102A568B5F573
:102A4000807F02D0012D36D01D46267D012E35D047
:102A50002668716821F46941294371602568AE6870
:102A6000274931401143A960A168B1F5807F01D0A9
:102A7000012902D12369013B1B052568E96A21F47C
:102A800070010B43EB62236899681E4B0B409A421E
:102A900025D0A36A23F0120343F01003A362E36A74
:102AA00043F00103E362012027E0C36280F8243091
:102AB000FEF7D6FBABE74FF48075C6E731B9A169E5
:102AC000013945EA413141F40065C1E7A16A41F0AD
:102AD0002001A162E16A41F00101E162B8E700234F
:102AE000E362A36A23F0030343F00103A36204E05B
:102AF000A36A43F01003A362012070BD0120704758
:102B0000FDF7E1FFFE0E1FFF70B582B000230193B9
:102B100090F82430012B72D00446012380F8243031
:102B2000FFF742FF054628B1002384F824302846E9
:102B300002B070BDA36A23F4885323F0020343F06C
:102B40000203A3622F4B1E68022001F001FCB6FBBA
:102B5000F0F67600019602E0019B013B0193019B98
:102B6000002BF9D12046FFF7DBFE2268936843F083
:102B700008039360FFF72CFE064623689A6812F05C
:102B8000080F14D0FFF724FE801B0A28F5D923680C
:102B90009B6813F0080FF0D0A36A23F0120343F0F0
:102BA0001003A362002384F824300125BFE79A684C
:102BB00042F004029A60FFF70BFE064623689B680A
:102BC00013F0040F14D0FFF703FE801B0A28F5D979
:102BD00023689B6813F0040FF0D0A36A23F012035C
:102BE00043F01003A362002384F8243001259EE7FC
:102BF000A36A23F0030343F00103A36294E70225D1
:102C000095E700BF00000020074AD36823F4E06383
:102C10001B041B0C000200F4E060034343F0BF639D
:102C200043F40033D360704700ED00E000B5194B6A
:102C3000DB68C3F30223C3F1070CBCF1040F28BF08
:102C40004FF0040C03F1040EBEF1060F18D9033B3C
:102C50004FF0FF3E0EFA0CFC21EA0C0199400EFAEF
:102C600003F322EA0303194300280BDB0901C9B26D
:102C700000F1604000F5614080F800135DF804FB4E
:102C80000023E5E700F00F000901C9B2024B195417
:102C9000F4E700BF00ED00E014ED00E0002807DBE2
:102CA00000F01F02400901239340024A42F82030FD
:102CB000704700BF00E100E060B310B40246016855
:102CC000154B0B441548A0FB03031B099B00136421
:102CD000134BD363022382F82130086820F47F501D
:102CE00020F03000536894682343D4682343146968
:102CF00023435469234394692343D46923430343FF
:102D00000B6000209063012382F8213082F82000BC
:102D100010BC704701207047F8FFFDBFCDCCCCCC74
:102D20000000024038B5C36B1A6804682568016C5E
:102D300004238B40134235D015F0040F32D02368A2
:102D400013F0200F03D1236823F0040323600368EA
:102D5000434A934214D01432934218D0143293420F
:102D600017D01432934217D01432934217D0143232
:102D7000934202D04FF0806203E04FF4800200E003
:102D80000422384B5A60C36A03B1984738BD4022C9
:102D9000F7E74FF48062F4E74FF48042F1E74FF435
:102DA0008022EEE702238B4013423CD015F0020F45
:102DB00039D0236813F0200F06D1236823F00A03CB
:102DC0002360012380F821300368254A934214D000
:102DD000143293421CD0143293421BD014329342CB
:102DE0001BD0143293421BD01432934202D04FF0C6
:102DF000007203E04FF4001200E00222194B5A6007
:102E0000002380F82030836A002BBFD09847BDE7AD
:102E10002022F3E74FF40072F0E74FF40052EDE7A1
:102E20004FF40032EAE7082303FA01F11142ADD072
:102E300015F0080FAAD0236823F00E032360026C5C
:102E4000C16B012303FA02F24A60836380F82130E8
:102E5000002380F82030036B002B97D0984795E72C
:102E6000080002400000024070B582B00024A44671
:102E7000A6E0804DAA4210D007D97F4DAA420CD0BF
:102E800005F58035AA4208D013E0A5F58015AA42C1
:102E900003D005F57025AA4207D18A68002A58D0C8
:102EA000012A51D04361082403E0A5F58015AA4208
:102EB000F3D0BEF1FF0F4ED80646BEF1FF0F4CD83F
:102EC0004FEA8C0233680F25954023EA050304FA84
:102ED00002F2134333604B6813F0805F6ED0674B90
:102EE0009A6942F001029A619B6903F00103019320
:102EF000019B4FEA9C02951C614B53F825600CF036
:102F000003039D000F23AB4026EA03065D4B984266
:102F100029D003F58063984200F08E8003F580632A
:102F2000984200F08B8003F58063984219D0042307
:102F30001AE0CC68BDE7CC680434BAE7CC68083442
:102F4000B7E7CC680C34B4E703610824B1E7002488
:102F5000AFE70424ADE7061DAFE7ACF1080292002D
:102F6000B0E7032300E00023AB4033430232444D7B
:102F700045F822304B6813F4803F61D0424A136811
:102F800043EA0E0313604B6813F4003F5ED03E4AE1
:102F9000536843EA0E0353604B6813F4801F5BD001
:102FA000394A936843EA0E0393604B6813F4001F99
:102FB00058D0354AD36843EA0E03D3600CF1010CB4
:102FC0000A6832FA0CF353D0012303FA0CF302EA35
:102FD000030E33EA0202F1D14A68122A3FF649AFE2
:102FE000122A3FF666AF01A555F822F09B2E000885
:102FF000332F00083D2F00084F2F0008B32E000884
:10300000B32E0008B32E0008B32E0008B32E00081C
:10301000B32E0008B32E0008B32E0008B32E00080C
:10302000B32E0008B32E0008B32E0008B32E0008FC
:10303000372F0008432F0008012395E7022393E769
:10304000114A136823EA0E0313609CE70E4A536883
:1030500023EA0E0353609FE70B4A936823EA0E03AB
:103060009360A2E7084AD36823EA0E03D360A5E77A
:1030700002B070BD000022100000311000100240AC
:103080000000014000080140000401400AB1016154
:10309000704709040161704703685A6912F4806F30
:1030A00001D1002070476FF480625A6100230363EE
:1030B000202280F83D2080F83E30026C42F004026D
:1030C000026480F83C30012070472DE9F04107464A
:1030D0000D4690461E4624E0FFF77AFB069BC01A79
:1030E000B04200D8EEB900233B63202287F83D2090
:1030F00087F83E303A6C42F020023A6487F83C3060
:1031000001201EE03B689C6925EA040C1FFA8CFC38
:10311000BCFA8CFC4FEA5C1CE04511D1B6F1FF3FD4
:10312000DAD1C5F30743012BECD13B685B6925EA93
:10313000030C1FFA8CFCBCFA8CFC4FEA5C1CEBE71E
:103140000020BDE8F0812DE9F04105460E46174606
:1031500098463DE01A6842F400721A602B686FF4DA
:1031600080625A6100232B63202285F83D2085F878
:103170003E302A6C42F004022A6485F83C3001207B
:1031800034E0FFF725FBA0EB0800B84200D8FFB9F8
:1031900000232B63202285F83D2085F83E302A6CE1
:1031A00042F020022A6485F83C3001201EE02B68A2
:1031B0009C6926EA0404A4B2003C18BF0124A4B10F
:1031C0002B685A6912F4806FC4D1B7F1FF3FD8D190
:1031D000C6F30743012BEAD12B685C6926EA040495
:1031E000A4B2003C18BF0124E9E70020BDE8F0814B
:1031F00070B504460D46164623685B6913F0800FD0
:103200001CD12046FFF748FFD0B9B5F1FF3FF3D0FE
:10321000FFF7DEFA801BA84201D8002DECD1002375
:103220002363202284F83D2084F83E30226C42F053
:103230002002226484F83C30012000E0002070BDB0
:103240000120FCE72DE9F04385B004460D46914688
:103250001F46DDF830800D9E0368196841F48071C7
:1032600019600096434600224FF00111FFF72DFF31
:1032700060B9236805F0FE051D61334642462649C4
:103280002046FFF760FF68B1012008E023681B6853
:1032900013F4807F02D04FF400732364032005B041
:1032A000BDE8F0830023039323685A6903929B6966
:1032B0000393039B324641462046FFF799FF30B9FE
:1032C000012F0FD123685FFA89F61E61E7E7236CAF
:1032D000042B01D00120E2E72268136843F4007355
:1032E0001360F7E723684FEA19221A613246414614
:1032F0002046FFF77DFF20B923685FFA89F61E613B
:10330000CDE7236C042B01D00120C8E722681368A5
:1033100043F400731360F7E7020001002DE9F04762
:1033200084B004460D46164699460C9FDDF834805D
:103330000268136843F4806313600368196841F4FA
:1033400080711960CDF800803B4600224FF00111DA
:10335000FFF7BBFE70B95FFA85FA236805F0FE053A
:103360001D6143463A4641492046FFF7ECFE68B1ED
:10337000012008E023681B6813F4807F02D04FF41B
:1033800000732364032004B0BDE8F0870023039397
:1033900023685A6903929B690393039B424639460B
:1033A0002046FFF725FF80B9B9F1010F18D1236836
:1033B000F6B21E61424639462046FFF719FF68B350
:1033C000236C042B24D00120DDE7236C042B01D0D7
:1033D0000120D8E72268136843F400731360F7E70D
:1033E0002368320A1A61424639462046FFF700FF39
:1033F00018B92368F6B21E61DCE7236C042B01D0F8
:103400000120C0E72268136843F400731360F7E7F4
:103410002268136843F400731360D4E722681368CA
:1034200043F480731360CDF800803B4600224FF0D8
:1034300001112046FFF749FE68B922684AF00103EE
:10344000136143463A4609492046FFF77CFE0028AF
:1034500099D0012097E723681B6813F4807F02D07E
:103460004FF40073236403208DE700BF02000100C6
:1034700070B504460D46164623685B6913F0040FC9
:103480001CD12046FFF708FED0B9B5F1FF3FF3D0BD
:10349000FFF79EF9801BA84201D8002DECD1002334
:1034A0002363202284F83D2084F83E30226C42F0D1
:1034B0002002226484F83C30012000E0002070BD2E
:1034C0000120FCE770B505460C4616462B68596985
:1034D00011F0400F29D1596911F0100F15D1FFF7E4
:1034E00077F9801BA04201D8002CEFD100232B6379
:1034F000202285F83D2085F83E302A6C42F02002DB
:103500002A6485F83C30012070BD6FF010025A61CA
:1035100000232B63202285F83D2085F83E302A6C5D
:103520002A6485F83C300120EEE70020ECE700003B
:10353000002800F0CC8070B5044690F83D30002B98
:1035400077D0242384F83D302268136823F00103E8
:1035500013602268136843F4004313602268136801
:1035600023F40043136000F029FE62685A4B9A422C
:1035700064D85A4B98428CBF00230123002B40F0A3
:10358000A8805749A1FB00318B0C25686A6822F09E
:103590003F0242EA91426A6021680A6A22F03F02D1
:1035A00066684D4DAE424FD8013313430B6221681C
:1035B000CA6922F44F4222F0FF026668464B9E42DF
:1035C0004CD8431E7600B3FBF6F3013340F6FC7093
:1035D000034278D0C3F30B031343CB6121680B681C
:1035E00023F0C003E269206A024313430B602168A1
:1035F0008B6823F4034323F0FF032269E06802434E
:1036000013438B602168CB6823F0FF036269A069D4
:1036100002431343CB602268136843F00103136035
:1036200000202064202384F83D30206384F83E008D
:1036300070BD80F83C30FEF793F882E7294B984242
:103640008CBF0023012399E74FF4967505FB03F324
:10365000254DA5FB03539B090133A6E7A368BBB91E
:10366000451E06EB460CB5FBFCF50135C5F30B0515
:10367000B5FA85F56D0945BBC3B9013806EB4603BC
:10368000B0FBF3F30133C3F30B0343F40043A3E7AD
:10369000451E06EB860C0CEB8C0CB5FBFCF50135DE
:1036A000C5F30B05B5FA85F56D09E4E7013806EBBE
:1036B000860303EB8303B0FBF3F30133C3F30B0384
:1036C00043F4404388E7042386E7012384E701208D
:1036D00070470120ACE700BFA08601007F841E0078
:1036E00083DE1B43FF083D00D34D62102DE9F043FC
:1036F00083B004460F46904699460C9EFFF768F843
:10370000054694F83D00C0B2202803D0022003B043
:10371000BDE8F0830095192301224B492046FFF7AD
:10372000D4FC002840F0898094F83C30012B00F054
:103730008680012384F83C3023681A6812F0010F58
:1037400003D11A6842F001021A602268136823F458
:1037500000631360212384F83D30402384F83E3019
:10376000002323640A9B6362BDF82C306385638D5C
:103770002385364BE362019500964B464246394617
:103780002046FFF75FFD00285BD1238D002B35D04D
:103790002A4631462046FFF72BFD20BB626A23688C
:1037A00012781A61626A531C6362218D013989B2F1
:1037B0002185638D9BB2013B9BB263852368586969
:1037C00010F0040FE1D00029DFD052781A61636A4B
:1037D00001336362238D013B2385638D9BB2013BE3
:1037E0009BB26385D1E7236C042B01D001208EE7C7
:1037F0002268136843F400731360F7E72A463146E2
:103800002046FFF735FE50B1236C042B01D0012078
:103810007DE72268136843F400731360F7E72268BA
:10382000136843F400731360202384F83D300023B1
:1038300084F83E3084F83C3069E7022067E70220D4
:1038400065E7012063E700BF020010000000FFFFF2
:103850002DE9F04389B004460F4690469946129EE2
:1038600000230793FEF7B4FF054694F83D00C0B26D
:10387000202804D00227384609B0BDE8F08300951F
:103880001923012281492046FFF71FFC002840F040
:10389000728194F83C30012B00F06F81012384F891
:1038A0003C3023681A6812F0010F03D11A6842F005
:1038B00001021A602268136823F400631360222354
:1038C00084F83D30402384F83E3000232364109B6D
:1038D0006362BDF844306385638D23856C4BE3627E
:1038E000019500964B46424639462046FFF716FDA5
:1038F0000746002840F04381238D5BB9039323687A
:103900005A6903929A690392039A1A6842F4007200
:103910001A60EDE0012B0FD0022B21D02268136832
:1039200043F4806313600023069323685A69069268
:103930009B690693069BDBE02268136823F480638F
:10394000136072B60023049323685A6904929A693B
:103950000492049A1A6842F400721A6062B6C7E0D0
:103960002268136843F40063136072B60023059362
:1039700023685A6905929A690592059A1A6822F491
:1039800080621A6062B6B3E02A4631462046FFF7ED
:1039900099FD002840F0F58023681A69636A1A705F
:1039A000636A01336362238D013B2385638D9BB280
:1039B000013B9BB263859BE000953346002235496D
:1039C0002046FFF782FB002840F0DF802268136862
:1039D00023F48063136072B623681A69636A1A70ED
:1039E000636A01336362238D013B2385638D9BB240
:1039F000013B9BB26385284B1B68DB08274AA2FB6F
:103A000003231B0A03EB8303C3EBC3030793079B47
:103A1000013B0793079B002B28D023685A6912F0BB
:103A2000040FF4D01A6842F400721A6023681A690D
:103A3000636A1A70636A01336362238D013B2385D5
:103A4000638D9BB2013B9BB2638562B623681A69A2
:103A5000636A1A70636A01336362238D013B2385B5
:103A6000638D9BB2013B9BB2638541E023632022BF
:103A700084F83D2084F83E30226C42F0200222641B
:103A800062B684F83C300127F5E600BF0200100062
:103A90000000FFFF040001000000002089B5F814B9
:103AA0002A4631462046FFF70DFD00286FD12368D6
:103AB0001A69636A1A70626A531C6362238D013B40
:103AC0002385638D9BB2013B9BB263852368596953
:103AD00011F0040F0CD01B695370636A01336362E9
:103AE000238D013B2385638D9BB2013B9BB2638594
:103AF000238D002B36D0032BD2D8012B3FF444AFBB
:103B0000022B7FF459AF009533460022214920460D
:103B1000FFF7DBFA002836D172B62268136843F447
:103B20000073136023681A69636A1A70636A013349
:103B30006362238D013B2385638D9BB2013B9BB266
:103B4000638562B623681A69636A1A70636A01330F
:103B50006362238D013B2385638D9BB2013B9BB246
:103B60006385C5E7202384F83D30002384F83E3088
:103B700084F83C307FE602277DE602277BE60127BA
:103B800079E6012777E6012775E6012773E6012725
:103B900071E600BF0400010082B0084B1B68084AB0
:103BA000A2FB03235B0A00FB03F3019300BF019B0D
:103BB0005A1E0192002BF9D102B07047000000207C
:103BC000D34D6210002800F0F18170B582B0044638
:103BD000036813F0010F2CD0994B5B6803F00C03C2
:103BE000042B1DD0964B5B6803F00C03082B12D0FE
:103BF0006368B3F5803F41D0002B55D103F180437A
:103C000003F504331A6822F480321A601A6822F429
:103C100080221A6037E08A4B5B6813F4803FE7D05C
:103C2000874B1B6813F4003F03D06368002B00F040
:103C3000BF81236813F0020F75D0814B5B6813F0CE
:103C40000C0F5FD07E4B5B6803F00C03082B54D045
:103C50002369002B00F08A807A4B01221A60FEF75C
:103C6000B7FD0546764B1B6813F0020F75D1FEF7C2
:103C7000AFFD401B0228F5D903209EE1704A13686E
:103C800043F480331360636843B3FEF7A1FD054638
:103C90006B4B1B6813F4003FCBD1FEF799FD401B23
:103CA0006428F5D9032088E1B3F5A02F09D0644B2F
:103CB0001A6822F480321A601A6822F480221A608C
:103CC000E1E703F18043A3F53C331A6842F4802214
:103CD0001A601A6842F480321A60D4E7FEF778FD61
:103CE0000546574B1B6813F4003FA2D0FEF770FD4A
:103CF000401B6428F5D903205FE1514B5B6813F446
:103D0000803FA5D14E4B1B6813F0020F03D02369EF
:103D1000012B40F04F814A4A136823F0F803616990
:103D200043EAC1031360236813F0080F33D0A3697B
:103D3000002B5CD0434B0122C3F88024FEF748FDE2
:103D400005463F4B5B6A13F0020F21D1FEF740FDA1
:103D5000401B0228F5D903202FE1394A136823F0CC
:103D6000F803616943EAC1031360DCE7354B0022C5
:103D70001A60FEF72DFD0546314B1B6813F0020F4C
:103D8000D1D0FEF725FD401B0228F5D9032014E110
:103D90000120FFF701FF236813F0040F00F0968065
:103DA000274BDB6913F0805F34D1254BDA6942F091
:103DB0008052DA61DB6903F080530193019B012596
:103DC000214B1B6813F4807F26D0E368012B3DD084
:103DD000002B53D103F1804303F504331A6A22F018
:103DE00001021A621A6A22F004021A6233E0154BC9
:103DF0000022C3F88024FEF7EBFC0546104B5B6AFB
:103E000013F0020FC7D0FEF7E3FC401B0228F5D9E0
:103E10000320D2E00025D3E70B4A136843F48073F4
:103E20001360FEF7D5FC0646074B1B6813F4807F32
:103E3000CBD1FEF7CDFC801B6428F5D90320BCE074
:103E40000010024000004242007000405F4A136AC6
:103E500043F001031362E36833B3FEF7B9FC06468F
:103E60005A4B1B6A13F0020F2FD1FEF7B1FC801BD7
:103E700041F288339842F3D903209EE0052B09D004
:103E8000524B1A6A22F001021A621A6A22F00402E4
:103E90001A62E0E74D4B1A6A42F004021A621A6A8B
:103EA00042F001021A62D6E7FEF792FC0646474B43
:103EB0001B6A13F0020F08D0FEF78AFC801B41F248
:103EC00088339842F3D9032077E0E5B9E369002B02
:103ED00072D03E4A526802F00C02082A56D0022BD9
:103EE00017D03B4B00221A66FEF772FC0446374B94
:103EF0001B6813F0007F47D0FEF76AFC001B022806
:103F0000F5D9032059E0314AD36923F08053D361B6
:103F1000DCE72F4B00221A66FEF75AFC05462B4BB6
:103F20001B6813F0007F06D0FEF752FC401B0228EE
:103F3000F5D9032041E0236AB3F5803F1AD0234925
:103F40004B6823F47413226A606A024313434B6084
:103F50001F4B01221A66FEF73BFC04461B4B1B68F5
:103F600013F0007F0ED1FEF733FC001B0228F5D9B9
:103F7000032022E0154A536823F40033A1680B4361
:103F80005360DCE7002018E0002016E0012B16D07B
:103F90000E4B5B6803F48031226A914211D103F425
:103FA0007013626A93420ED1002006E00120704730
:103FB000012002E0012000E0002002B070BD0120DD
:103FC000FBE70120F9E70120F7E700BF00100240FE
:103FD0000000424286B0174B0FCB0DF1180C0CE9D4
:103FE0000F0040F20123ADF80430134B5B6803F07F
:103FF0000C02082A02D0114806B07047C3F383426E
:1040000018326A4412F8100C13F4803F0DD00A4B9A
:104010005B68C3F3404318336B4413F8143C074AFE
:1040200002FB00F0B0FBF3F0E6E7054B03FB00F00A
:10403000E2E700BF107F00080010024000127A0083
:1040400000093D00002800F0A08070B50D46044630
:10405000524B1B6803F007038B420BD24F4A136885
:1040600023F007030B431360136803F007038B422D
:1040700040F08D80236813F0020F17D013F0040F67
:1040800004D0474A536843F4E0635360236813F055
:10409000080F04D0424A536843F460535360404AC7
:1040A000536823F0F003A1680B435360236813F0B7
:1040B000010F31D06368012B20D0022B25D0384A64
:1040C000126812F0020F64D035494A6822F00302E8
:1040D00013434B60FEF77CFB0646314B5B6803F0F5
:1040E0000C036268B3EB820F16D0FEF771FB801BE6
:1040F00041F288339842F0D9032045E0284A1268FB
:1041000012F4003FE0D101203EE0254A126812F08F
:10411000007FD9D1012037E0204B1B6803F0070353
:10412000AB420AD91D4A136823F007032B431360DF
:10413000136803F00703AB422DD1236813F0040F7B
:1041400006D0174A536823F4E063E1680B435360D9
:10415000236813F0080F07D0114A536823F4605303
:10416000216943EAC1035360FFF734FF0C4B5B68DE
:10417000C3F303130B4AD35CD8400B4B18600B4BB3
:104180001868FDF7BFFB002070BD012070470120BB
:10419000FAE70120F8E70120F6E700BF002002401F
:1041A00000100240F87E00080000002010080020E7
:1041B000014B1868704700BF0000002008B5FFF7EA
:1041C000F7FF044B5B68C3F30223034AD35CD84078
:1041D00008BD00BF00100240087F000808B5FFF7C7
:1041E000E7FF044B5B68C3F3C223034AD35CD840A8
:1041F00008BD00BF00100240087F00080F230360C5
:104200000B4B5A6802F0030242605A6802F0F00257
:1042100082605A6802F4E062C2605B68DB0803F403
:10422000E0630361034B1B6803F007030B607047F7
:10423000001002400020024070B582B004460368BE
:1042400013F0010F36D03F4BDB6913F0805F49D18B
:104250003C4BDA6942F08052DA61DB6903F080534B
:104260000193019B0125384B1B6813F4807F3BD0E1
:10427000344B1B6A13F4407313D0626802F440722B
:104280009A420ED02F4A136A23F440702F49012618
:10429000C1F840640026C1F84064106213F0010FB9
:1042A00036D1284A136A23F4407361680B431362C2
:1042B000002D3ED1236813F0020F06D0214A536827
:1042C00023F44043A1680B435360236813F0100F9D
:1042D00034D01C4A536823F48003E1680B435360D5
:1042E00000202CE00025BEE7174A136843F48073D2
:1042F0001360FEF76DFA0646134B1B6813F4807FBC
:10430000B6D1FEF765FA801B6428F5D9032016E0C4
:10431000FEF75EFA06460B4B1B6A13F0020FC0D184
:10432000FEF756FA801B41F288339842F3D90320F6
:1043300005E0D36923F08053D361BBE7002002B0CE
:1043400070BD00BF001002400070004000004242FB
:1043500000B587B08446394B0FCB0DF1180E0EE92E
:104360000F0040F20123ADF80430BCF1020F56D02B
:10437000BCF1100F06D0BCF1010F2ED0002007B009
:104380005DF804FB2E4B5A68186810F08070F6D068
:10439000C2F3834318336B4413F8100C12F4803FBC
:1043A00017D0274B5B68C3F3404318336B4413F8B3
:1043B000142C244BB3FBF2F303FB00F0204B5B689F
:1043C00013F4800FDBD140001F4BA3FB00304008EB
:1043D000D5E71E4B03FB00F0F0E7194B1B6A40F2D8
:1043E00002321A40B2F5817F24D003F44073B3F552
:1043F000007F04D0B3F5407F09D00020BFE7104A0A
:10440000526A12F0020FF5D049F64040B7E70C4B64
:10441000186810F40030B2D04FF22440AFE7FFF735
:10442000DDFE074B5B68C3F3813301335B00B0FBF8
:10443000F3F0A4E74FF40040A1E700BF107F0008AD
:104440000010024000127A00ABAAAAAA00093D009F
:1044500070B4036A23F001030362036A4668826949
:1044600022F073020C6844EA020523F002028B6812
:1044700013430D4CA04209D00B4CA0420DD0466016
:1044800085614A684263036270BC704723F0080389
:10449000CA68134323F00403EEE726F440764A6922
:1044A00032438E691643EAE7002C014030B4036AB8
:1044B00023F480730362036A4568C26922F07302C1
:1044C0000C68224323F400738C6843EA04230F4CE6
:1044D000A04209D00D4CA0420ED04560C2614A688E
:1044E000C263036230BC704723F40063CC6843EAC4
:1044F000042323F48063EDE725F440554C6945EA35
:1045000004158C6945EA0415E7E700BF002C01405B
:1045100030B4036A23F480530362036A4468C269B7
:1045200022F4E6420D6842EA052223F400538D6826
:1045300043EA0533074DA84206D04460C2614A6889
:104540000264036230BC704724F480444D6944EA3D
:104550008514F2E7002C01407047000090F83D30D0
:10456000DBB2012B27D1022380F83D300268D368EB
:1045700043F00103D3600368114A934210D0B3F1B2
:10458000804F0DD0A2F59432934209D002F580629B
:10459000934205D01A6842F001021A600020704769
:1045A0009A6802F00702062A07D01A6842F0010250
:1045B0001A6000207047012070470020704700BF3C
:1045C000002C0140704770477047704710B5044693
:1045D00003681A6912F0020F11D0DA6812F0020FA4
:1045E0000DD06FF002021A610123037703689B6903
:1045F00013F0030F70D0FFF7E6FF00232377236843
:104600001A6912F0040F12D0DA6812F0040F0ED0FB
:104610006FF004021A610223237723689B6913F465
:10462000407F5FD02046FFF7CEFF0023237723682B
:104630001A6912F0080F12D0DA6812F0080F0ED0C3
:104640006FF008021A61042323772368DB6913F0F3
:10465000030F4ED02046FFF7B6FF002323772368D1
:104660001A6912F0100F12D0DA6812F0100F0ED083
:104670006FF010021A61082323772368DB6913F4B3
:10468000407F3DD02046FFF79EFF0023237723681D
:104690001A6912F0010F03D0DA6812F0010F36D157
:1046A00023681A6912F0800F03D0DA6812F0800FC5
:1046B00034D123681A6912F0400F03D0DA6812F07F
:1046C000400F32D123681A6912F0200F03D0DA6844
:1046D00012F0200F30D110BDFFF774FF2046FFF716
:1046E00073FF8AE72046FFF76DFF2046FFF76CFF58
:1046F0009BE72046FFF766FF2046FFF765FFACE724
:104700002046FFF75FFF2046FFF75EFFBDE76FF033
:1047100001021A612046FDF755F8C1E76FF08002EB
:104720001A61204600F0B3FAC3E76FF040021A6145
:104730002046FFF74AFFC5E76FF020021A612046C6
:1047400000F0A4FAC7E7000003681B4A90420AD0B1
:10475000B0F1804F07D0A2F59432904203D002F519
:104760008062904203D123F070034A681343124AD7
:1047700090420AD0B0F1804F07D0A2F59432904217
:1047800003D002F58062904203D123F44073CA68DB
:10479000134323F080034A69134303608B68C362A9
:1047A0000B688362044B984202D001234361704737
:1047B0000B690363F9E700BF002C014040B310B55B
:1047C000044690F83D30F3B1022384F83D30214691
:1047D00051F8040BFFF7B8FF012384F8463084F842
:1047E0003E3084F83F3084F8403084F8413084F81B
:1047F000423084F8433084F8443084F8453084F8FB
:104800003D30002010BD80F83C30FFF7A5FEDBE70F
:104810000120704740B310B5044690F83D30F3B125
:10482000022384F83D30214651F8040BFFF78CFF3A
:10483000012384F8463084F83E3084F83F3084F811
:10484000403084F8413084F8423084F8433084F8B2
:10485000443084F8453084F83D30002010BD80F8A5
:104860003C30FDF729FADBE701207047002857D0DC
:1048700070B50D46044690F83D30002B4BD0022316
:1048800084F83D302268936823F4804323F00703C3
:104890009360214651F8040BFFF756FF21688A68A0
:1048A0008B690E6A2868104323F4407C2CF0030CBB
:1048B000AA68AB6942EA032343EA0C0323F47C436E
:1048C00023F0FC03EA69D5F80CC04CEA022C4CEA50
:1048D000030C2A6A13032A6943EA021343EA0C030E
:1048E00026F022066A686D6942EA05123243886042
:1048F00021688B6123681A62012384F8463084F8AA
:104900003E3084F83F3084F8423084F8433084F8F5
:104910003D30002070BD80F83C30FDF757F9AEE720
:104920000120704730B4036A23F010030362036A66
:104930004468826922F4E6420D6842EA052223F0C7
:1049400020038D6843EA05130E4DA84209D00D4D92
:10495000A8420ED0446082614A688263036230BC20
:10496000704723F08003CD6843EA051323F040032A
:10497000EDE724F440644D6944EA85048D6944EA16
:104980008504E7E7002C014038B590F83C30012B56
:1049900060D004460D46012380F83C300C2A1AD81A
:1049A000DFE802F0071919191D1919193119191918
:1049B00044000068FFF74CFD2268936943F0080348
:1049C00093612268936923F00403936122689369D9
:1049D00029690B439361002084F83C0038BD0068CE
:1049E000FFF7A0FF2268936943F400639361226894
:1049F000936923F48063936122689369296943EA88
:104A000001239361E7E70068FFF750FD2268D3694F
:104A100043F00803D3612268D36923F00403D36110
:104A20002268D36929690B43D361D4E70068FFF793
:104A30006FFD2268D36943F40063D3612268D369B0
:104A400023F48063D3612268D369296943EA01238F
:104A5000D361C0E70220C1E701F01F01012303FA7F
:104A600001FC036A23EA0C030362036A02FA01F100
:104A70000B4303627047000010B50446084651BB63
:104A800094F83E30DBB2013B18BF0123002B5BD111
:104A9000002839D1022384F83E30012201462068E3
:104AA000FFF7DAFF23682A4A93423DD02368284A59
:104AB00093423ED0B3F1804F3BD0A2F59432934263
:104AC00037D002F58062934233D01A6842F0010277
:104AD0001A60002039E0042908D008290DD094F884
:104AE0004130DBB2013B18BF0123CFE794F83F30E0
:104AF000DBB2013B18BF0123C8E794F84030DBB2BA
:104B0000013B18BF0123C1E7042805D0082807D0BE
:104B1000022384F84130C0E7022384F83F30BCE729
:104B2000022384F84030B8E75A6C42F400425A64D9
:104B3000BCE79A6802F00702062A07D01A6842F01A
:104B400001021A60002000E0012010BD0020FCE7F7
:104B5000002C014038B5044690F83E00C0B294F8ED
:104B60003F3094F84220D2B294F843C00D46B1B918
:104B7000012849D1012A48D1022384F83E3084F823
:104B800042307DB3042D39D0012200212068FFF787
:104B900063FF012204212068FFF75EFF27E0DBB2FC
:104BA0005FFA8CFC042912D0012833D1012B2CD1BF
:104BB000012A31D1BCF1010F30D1022384F83E30FB
:104BC00084F83F3084F8423084F84330D9E7012B31
:104BD0001CD1BCF1010F1BD1022384F83F3084F8B3
:104BE0004330CEE7012200212068FFF735FF22681D
:104BF000136843F001031360002006E00122042142
:104C00002068FFF729FFF2E7012038BD0120FCE70B
:104C10001846FAE70120F8E71846F6E71046F4E7E9
:104C200090F83C30012B2CD010B4012380F83C309C
:104C3000022380F83D3003685A689C6822F0700CAB
:104C40000A6842EA0C025A6003680F4A93420AD08B
:104C5000B3F1804F07D0A2F59432934203D002F50E
:104C60008062934204D124F080044A6814439C601B
:104C7000012380F83D30002380F83C30184610BCFA
:104C800070470220704700BF002C014070477047FA
:104C900010B504460268136923F44053C1680B43FE
:104CA000136183680269134342691A430168CB6840
:104CB00023F4B05323F00C031343CB600268536911
:104CC00023F4407381690B4353610268134B9A428A
:104CD00020D0FFF773FA024602EB820202EB820257
:104CE00063689B00B2FBF3F20D48A0FB0231490957
:104CF000642303FB11231B013233A0FB03235B0955
:104D000003F0F00202EB011203F00F0321681344D9
:104D10008B6010BDFFF762FA0246DDE70038014004
:104D20001F85EB5158B310B5044690F83D300BB3D6
:104D3000242384F83D302268D36823F40053D360E1
:104D40002046FFF7A5FF2268136923F490431361FF
:104D50002268536923F02A0353612268D36843F41D
:104D60000053D36000202064202384F83D3084F871
:104D70003E3010BD80F83C30FDF75EF8D8E70120EA
:104D800070470000EFF3058393B9EFF3108393B9F5
:104D90000C4B1868022804D080B90A4B01221A6013
:104DA0007047EFF31183002BF6D06FF005007047CA
:104DB0006FF0050070476FF0050070474FF0FF304F
:104DC000704700BF101A002008B5EFF30583B3B990
:104DD000EFF31083B3B90E4B1B68022B08D0012BE5
:104DE00013D10B4B02221A6001F078FA002008BDA3
:104DF000EFF31182002AF2D06FF00500F7E76FF0B1
:104E00000500F4E76FF00500F1E74FF0FF30EEE743
:104E1000101A0020F0B587B000240494EFF3058445
:104E2000002C43D1EFF31083002B3FD1334B1B6891
:104E3000022B16D0002839D000238DF8173062B32A
:104E4000156895B1936903B918235C1E372C51D8A6
:104E5000546814F0010F4FD156694EB14FEA960CC9
:104E600008E0EFF311830BBBE4E70DF11705E9E769
:104E70004FF0800C94682CB1D7685B2F02D917696A
:104E800007B1B6B914B14FF0FF340CE0D46894B94F
:104E900014699CB14FF0FF3405E0002418234FF053
:104EA000800C0DF11705012C0AD0ACB1049807B0A5
:104EB000F0BD0124F7E74FF0FF34F4E70024F2E7F8
:104EC000146992680292019400930B466246294647
:104ED00001F03AF90490E9E704AA019200930B4625
:104EE0001FFA8CF2294601F069F90128DED000236F
:104EF0000493DBE70020DAE70020D8E7101A00204F
:104F000008B5002001F08EF9FEE7000008B5EFF3C8
:104F10000583A3B9EFF31083A3B90C4B1B68022BD5
:104F200002D040B9002008BDEFF31183002BF8D068
:104F30006FF00500F7E701F035FB0020F3E76FF0B5
:104F40000500F0E76FF00500EDE700BF101A002044
:104F500070B5EFF30583002B4ED10446EFF31082BA
:104F60001346002A4BD1284A1268022A23D004B1E2
:104F7000636813F0010600D0012613F0080F40D13A
:104F80007CB3A16811B1E3684F2B1FD8C9B14FF0B2
:104F9000FF337BBB4EB3042000F093FD05462DB1DB
:104FA00004B124682146284600F00EFF2DB326B335
:104FB00045F0010521E0EFF31182002AD7D000254A
:104FC0001BE0E3687BB14FF0FF33E2E726B104203A
:104FD00000F082FD0546E2E7012000F07DFD054678
:104FE000DDE70023D5E70023D3E7012000F069FDCA
:104FF0000546D4E70025D9E70025284670BD0025E1
:10500000FBE70025F9E700BF101A002030B583B098
:10501000EFF30583002B49D11546EFF31083002BE6
:1050200048D1284B1B68022B21D0002844D00029EE
:1050300044D0A5B3AB6853B1EA684F2A07D92A69AF
:105040002AB101FB00F4D5F814C0A44521D2A3B1C4
:105050004FF0FF33A3BB002200F03CFC044634B306
:1050600005B12D682946204600F0AEFE1FE0EFF3A3
:105070001183002BD9D0002419E0EB688BB92B6980
:1050800013B14FF0FF33E5E76B696BB14FF0FF33BE
:10509000E0E70024009400F0D4FB0446DFE700239F
:1050A000D8E74FF0FF33D5E70023D3E700242046AD
:1050B00003B030BD0024FAE70024F8E70024F6E747
:1050C0000024F4E7101A002010B582B01C46EFF35C
:1050D0000583B3B9EFF310839BB9224B1B68022BF6
:1050E0000BD098B3A9B30023224600F01AFC012884
:1050F00032D09CB36FF001001AE0EFF31183002B64
:10510000EFD0B8B1C9B1DCB90023019301AA00F016
:10511000F2FC012817D1019850B14FF0E0234FF075
:105120008052C3F8042DBFF34F8FBFF36F8F002061
:1051300002B010BD6FF00300FAE76FF00300F7E76D
:105140006FF00300F4E76FF00200F1E76FF0030087
:10515000EEE76FF00300EBE70020E9E76FF00200F5
:10516000E6E700BF101A002010B582B01C46EFF32E
:105170000583ABB9EFF3108393B9214B1B68022B66
:105180000AD090B3A1B3224600F01BFD012832D013
:105190009CB36FF001001AE0EFF31183002BF0D005
:1051A000B8B1C9B1DCB90023019301AA00F0B8FD80
:1051B000012817D1019850B14FF0E0234FF08052F1
:1051C000C3F8042DBFF34F8FBFF36F8F002002B0E1
:1051D00010BD6FF00300FAE76FF00300F7E76FF020
:1051E0000300F4E76FF00200F1E76FF00300EEE771
:1051F0006FF00300EBE70020E9E76FF00200E6E75D
:10520000101A0020034B0360034B0B6080231360D4
:10521000704700BFB4190020B4170020034B03608F
:10522000034B0B604FF4807313607047141E002013
:10523000141A002000F1080343604FF0FF3282602F
:10524000C36003610023036070470023036170475C
:1052500043684B609A688A6051609960086103688E
:1052600001330360704730B40D68B5F1FF3F11D0D2
:1052700000F108031C465B681A68AA42FAD9636801
:105280004B6099608C606160086103680133036062
:1052900030BC70470469F2E70369416882688A603C
:1052A000416851605A68824206D0002202611A6841
:1052B000013A1A601868704782685A60F5E7000082
:1052C00082B0002301930D4B1B68B3F1FF3F08D060
:1052D0004FF0500383F31188BFF36F8FBFF34F8FED
:1052E000FEE74FF0500383F31188BFF36F8FBFF3D6
:1052F0004F8F019B002BFCD002B070471408002098
:1053000006480068006880F3088862B661B6BFF39B
:105310004F8FBFF36F8F00DF00BF000008ED00E08C
:105320004FF0807340F8043C21F0010140F8081C64
:10533000034B40F80C3C40F8202C4038704700BF2D
:10534000C152000800000000000000000000000042
:10535000074B19680868B0E8F00F80F30988BFF3BD
:105360006F8F4FF0000080F311884EF00D0E7047E4
:10537000C41E00204FF0500383F31188BFF36F8FDA
:10538000BFF34F8F0B4A136801331360012B00D01A
:1053900070474FF0E023D3F8043D13F0FF0FF7D030
:1053A0004FF0500383F31188BFF36F8FBFF34F8F1C
:1053B000FEE700BF14080020094B1B6843B94FF0FB
:1053C000500383F31188BFF36F8FBFF34F8FFEE756
:1053D000013B034A13600BB983F31188704700BF88
:1053E0001408002000000000000000000000000081
:1053F000EFF30980BFF36F8F0D4B1A6820E9F00FB0
:1054000010602DE908404FF0500080F3118801F042
:10541000EFF84FF0000080F31188BDE808401968EC
:105420000868B0E8F00F80F30988BFF36F8F70470A
:10543000C41E002008B54FF0500383F31188BFF35A
:105440006F8FBFF34F8F00F0A5FF28B14FF0E0231F
:105450004FF08052C3F8042D002383F3118808BD58
:105460004FF0E022002313619361054B1B6805494F
:10547000A1FB03139B09013B536107231361704791
:1054800000000020D34D621010B582B02A4B1A786C
:10549000D2B20192FF221A701B78DBB28DF8033072
:1054A0009DF8033003F05003244A1370244B072265
:1054B0001A6009E0224A1368013B13609DF803302B
:1054C0005B00DBB28DF803309DF8033013F0800FE2
:1054D000F0D11B4B1B68032B08D04FF0500383F314
:1054E0001188BFF36F8FBFF34F8FFEE71B02144A83
:1054F000136003F4E0631360019BDBB20E4A137088
:105500004FF0E023D3F8202D42F47002C3F8202D91
:10551000D3F8202D42F07042C3F8202DFFF7A0FFF2
:105520000024084B1C60FFF7EBFE01F061F8FFF769
:10553000C7FE204602B010BD00E400E0701E00204F
:10554000741E002014080020EFF305830F2B0FD9E1
:10555000114A9B5CDBB2114A12789A4208D94FF08B
:10556000500383F31188BFF36F8FBFF34F8FFEE7B4
:105570004FF0E023D3F80C3D03F4E063084A1268CF
:10558000934208D94FF0500383F31188BFF36F8F14
:10559000BFF34F8FFEE77047F0E300E0701E00207E
:1055A000741E0020F8B506460C46174B1B6843B91D
:1055B000164B174A9B1AA3F58063164A1360124ACA
:1055C000136001F02DF9012815D0134F00F0D4FE1F
:1055D000124B1D682B19BB420FD8104A13600D4A9D
:1055E00013681B1B13600E4B19682144196000F0EF
:1055F0005DFF2846F8BD6F46E8E70C23336000F0F6
:1056000055FF4FF0FF35F4E7781E002000500020D2
:10561000282500207C1E0020004C002018080020B7
:10562000801E002008B5EFF3058313B900F0A4FE37
:1056300008BD4FF0500383F31188BFF36F8FBFF3A2
:105640004F8FFEE708B500F031FF08BD08B501F047
:10565000A7FB08BD08B501F0ABFB08BD10B50446BB
:10566000FFF788FEA26BE36B9A4204D00024FFF799
:10567000A3FE204610BD0124F9E710B50446FFF74C
:1056800079FEA36B23B90124FFF796FE204610BDD7
:105690000024F9E770B504461546866B026C5AB9CA
:1056A00003681BB100200136A66370BD406801F09D
:1056B000C7F800236360F6E76DB98068FBF7E8FC84
:1056C000226CA3681344A3606268934219D32368D1
:1056D000A3602846E7E7C068FBF7DAFC226C51427A
:1056E000E3689B1AE3602268934202D263680B442A
:1056F000E360022D01D00020D5E726B1013E002055
:10570000D1E72846CFE70020CDE708B50346026C75
:1057100062B10846D9681144D960D3F804C0614524
:1057200001D31968D960D968FBF7B2FC08BD38B558
:105730000546FFF71FFE95F8454064B201E0013CC5
:1057400064B2002C0ADD6B6A43B105F1240000F05D
:10575000CDFF0028F3D001F05DF8F0E7FF2385F8D6
:105760004530FFF729FEFFF705FE95F8444064B287
:1057700001E0013C64B2002C0ADD2B6943B105F164
:10578000100000F0B3FF0028F3D001F043F8F0E779
:10579000FF2385F84430FFF70FFE38BD38B5E0B180
:1057A0000D460446FFF7E6FD2368E26B216C01FB22
:1057B000023060600020A063A360013A02FB013365
:1057C000E360FF2384F8443084F84530FDB9236951
:1057D00063B9FFF7F1FD012038BD4FF0500383F3AB
:1057E0001188BFF36F8FBFF34F8FFEE704F11000F6
:1057F00000F07CFF0028ECD04FF0E0234FF0805207
:10580000C3F8042DBFF34F8FBFF36F8FE1E704F1AF
:105810001000FFF70FFD04F12400FFF70BFDD8E7A0
:1058200038B51D46049C0B4649B92460E0632364E7
:1058300001212046FFF7B2FF84F84C5038BD2260AA
:10584000F4E740B94FF0500383F31188BFF36F8F33
:10585000BFF34F8FFEE710B584B01C46844653B1AA
:1058600092B189B94FF0500383F31188BFF36F8F62
:10587000BFF34F8FFEE74FF0500383F31188BFF360
:105880006F8FBFF34F8FFEE76AB150230393039BE3
:10589000502B13D04FF0500383F31188BFF36F8F59
:1058A000BFF34F8FFEE70029EFD04FF0500383F393
:1058B0001188BFF36F8FBFF34F8FFEE7012384F88A
:1058C000463000949DF818306046FFF7A9FF204647
:1058D00004B010BD40B94FF0500383F31188BFF3FB
:1058E0006F8FBFF34F8FFEE7F0B583B00C461546C0
:1058F0000746A1B101FB00F05030FFF7A7FE0646B6
:1059000050B1002380F8463000902B4600F1500241
:1059100021463846FFF784FF304603B0F0BD084605
:10592000EAE7F0B585B0019288B10F461D460446FE
:10593000B1B1022D20D1E36B012B1DD04FF05003EC
:1059400083F31188BFF36F8FBFF34F8FFEE74FF0E4
:10595000500383F31188BFF36F8FBFF34F8FFEE7C0
:10596000036C002BE5D04FF0500383F31188BFF395
:105970006F8FBFF34F8FFEE700F052FF064658B916
:10598000019B002B48D04FF0500383F31188BFF3E5
:105990006F8FBFF34F8FFEE700263DE02A46394662
:1059A0002046FFF777FE636A7BB948B14FF0E023EA
:1059B0004FF08052C3F8042DBFF34F8FBFF36F8FAA
:1059C000FFF7FAFC012005B0F0BD04F1240000F05F
:1059D0008DFE0028F4D04FF0E0234FF08052C3F842
:1059E000042DBFF34F8FBFF36F8FE9E7FFF7E4FCA0
:1059F0000020E8E702A800F0BFFE012619E000231E
:105A000084F8443021E0002384F8453023E0204628
:105A1000FFF78DFE00F04AFDFFF7ACFCA26BE36BD5
:105A20009A42BBD3022DB9D0019B002BDED0002EB1
:105A3000E0D0FFF7C1FC00F09FFCFFF79BFC94F85F
:105A4000442052B2B2F1FF3FD9D094F8452052B26F
:105A5000B2F1FF3FD7D0FFF7AFFC01A902A800F0D9
:105A600097FED8B92046FFF7F9FD0028CFD001995D
:105A700004F1100000F006FE2046FFF758FE00F08B
:105A800015FD0028C8D14FF0E0234FF08052C3F835
:105A9000042DBFF34F8FBFF36F8FBDE72046FFF795
:105AA00046FE00F003FD00208DE748B108B5002157
:105AB00041600160C1600B460A46FFF732FF08BD36
:105AC000704710B5024600210120FFF703FF04468E
:105AD000FFF7EBFF204610BD10B582B00B460090DB
